{
  "contractName": "Token",
  "abi": [
    {
      "inputs": [
        {
          "internalType": "string",
          "name": "_name",
          "type": "string"
        },
        {
          "internalType": "string",
          "name": "_sym",
          "type": "string"
        },
        {
          "internalType": "uint256",
          "name": "_totalsupply",
          "type": "uint256"
        },
        {
          "internalType": "uint256",
          "name": "_decimal",
          "type": "uint256"
        }
      ],
      "stateMutability": "nonpayable",
      "type": "constructor"
    },
    {
      "anonymous": false,
      "inputs": [
        {
          "indexed": true,
          "internalType": "address",
          "name": "tokenOwner",
          "type": "address"
        },
        {
          "indexed": true,
          "internalType": "address",
          "name": "spender",
          "type": "address"
        },
        {
          "indexed": false,
          "internalType": "uint256",
          "name": "tokens",
          "type": "uint256"
        }
      ],
      "name": "Approval",
      "type": "event"
    },
    {
      "anonymous": false,
      "inputs": [
        {
          "indexed": true,
          "internalType": "address",
          "name": "from",
          "type": "address"
        },
        {
          "indexed": true,
          "internalType": "address",
          "name": "to",
          "type": "address"
        },
        {
          "indexed": false,
          "internalType": "uint256",
          "name": "tokens",
          "type": "uint256"
        }
      ],
      "name": "Transfer",
      "type": "event"
    },
    {
      "inputs": [],
      "name": "_totalSupply",
      "outputs": [
        {
          "internalType": "uint256",
          "name": "",
          "type": "uint256"
        }
      ],
      "stateMutability": "view",
      "type": "function"
    },
    {
      "inputs": [
        {
          "internalType": "address",
          "name": "",
          "type": "address"
        },
        {
          "internalType": "address",
          "name": "",
          "type": "address"
        }
      ],
      "name": "allowed",
      "outputs": [
        {
          "internalType": "uint256",
          "name": "",
          "type": "uint256"
        }
      ],
      "stateMutability": "view",
      "type": "function"
    },
    {
      "inputs": [
        {
          "internalType": "address",
          "name": "",
          "type": "address"
        }
      ],
      "name": "balance",
      "outputs": [
        {
          "internalType": "uint256",
          "name": "",
          "type": "uint256"
        }
      ],
      "stateMutability": "view",
      "type": "function"
    },
    {
      "inputs": [],
      "name": "decimals",
      "outputs": [
        {
          "internalType": "uint256",
          "name": "",
          "type": "uint256"
        }
      ],
      "stateMutability": "view",
      "type": "function"
    },
    {
      "inputs": [],
      "name": "name",
      "outputs": [
        {
          "internalType": "string",
          "name": "",
          "type": "string"
        }
      ],
      "stateMutability": "view",
      "type": "function"
    },
    {
      "inputs": [],
      "name": "symbol",
      "outputs": [
        {
          "internalType": "string",
          "name": "",
          "type": "string"
        }
      ],
      "stateMutability": "view",
      "type": "function"
    },
    {
      "inputs": [],
      "name": "totalSupply",
      "outputs": [
        {
          "internalType": "uint256",
          "name": "",
          "type": "uint256"
        }
      ],
      "stateMutability": "view",
      "type": "function"
    },
    {
      "inputs": [
        {
          "internalType": "address",
          "name": "_tokenOwner",
          "type": "address"
        }
      ],
      "name": "balanceOf",
      "outputs": [
        {
          "internalType": "uint256",
          "name": "",
          "type": "uint256"
        }
      ],
      "stateMutability": "view",
      "type": "function"
    },
    {
      "inputs": [
        {
          "internalType": "address",
          "name": "_to",
          "type": "address"
        },
        {
          "internalType": "uint256",
          "name": "_tokens",
          "type": "uint256"
        }
      ],
      "name": "transfer",
      "outputs": [
        {
          "internalType": "bool",
          "name": "",
          "type": "bool"
        }
      ],
      "stateMutability": "nonpayable",
      "type": "function"
    },
    {
      "inputs": [
        {
          "internalType": "address",
          "name": "_from",
          "type": "address"
        },
        {
          "internalType": "address",
          "name": "_to",
          "type": "address"
        },
        {
          "internalType": "uint256",
          "name": "_tokens",
          "type": "uint256"
        }
      ],
      "name": "transferFrom",
      "outputs": [
        {
          "internalType": "bool",
          "name": "",
          "type": "bool"
        }
      ],
      "stateMutability": "nonpayable",
      "type": "function"
    },
    {
      "inputs": [
        {
          "internalType": "address",
          "name": "_spender",
          "type": "address"
        },
        {
          "internalType": "uint256",
          "name": "_tokens",
          "type": "uint256"
        }
      ],
      "name": "approve",
      "outputs": [
        {
          "internalType": "bool",
          "name": "",
          "type": "bool"
        }
      ],
      "stateMutability": "nonpayable",
      "type": "function"
    },
    {
      "inputs": [
        {
          "internalType": "address",
          "name": "_tokenOwner",
          "type": "address"
        },
        {
          "internalType": "address",
          "name": "_spender",
          "type": "address"
        }
      ],
      "name": "allowance",
      "outputs": [
        {
          "internalType": "uint256",
          "name": "",
          "type": "uint256"
        }
      ],
      "stateMutability": "view",
      "type": "function"
    }
  ],
  "bytecode": "0x60806040523480156200001157600080fd5b50604051620012df380380620012df83398181016040528101906200003791906200034d565b83600090805190602001906200004f929190620000c5565b50826001908051906020019062000068929190620000c5565b50816002819055508060038190555081600460003373ffffffffffffffffffffffffffffffffffffffff1673ffffffffffffffffffffffffffffffffffffffff168152602001908152602001600020819055505050505062000461565b828054620000d3906200042c565b90600052602060002090601f016020900481019282620000f7576000855562000143565b82601f106200011257805160ff191683800117855562000143565b8280016001018555821562000143579182015b828111156200014257825182559160200191906001019062000125565b5b50905062000152919062000156565b5090565b5b808211156200017157600081600090555060010162000157565b5090565b6000604051905090565b600080fd5b600080fd5b600080fd5b600080fd5b6000601f19601f8301169050919050565b7f4e487b7100000000000000000000000000000000000000000000000000000000600052604160045260246000fd5b620001de8262000193565b810181811067ffffffffffffffff821117156200020057620001ff620001a4565b5b80604052505050565b60006200021562000175565b9050620002238282620001d3565b919050565b600067ffffffffffffffff821115620002465762000245620001a4565b5b620002518262000193565b9050602081019050919050565b60005b838110156200027e57808201518184015260208101905062000261565b838111156200028e576000848401525b50505050565b6000620002ab620002a58462000228565b62000209565b905082815260208101848484011115620002ca57620002c96200018e565b5b620002d78482856200025e565b509392505050565b600082601f830112620002f757620002f662000189565b5b81516200030984826020860162000294565b91505092915050565b6000819050919050565b620003278162000312565b81146200033357600080fd5b50565b60008151905062000347816200031c565b92915050565b600080600080608085870312156200036a57620003696200017f565b5b600085015167ffffffffffffffff8111156200038b576200038a62000184565b5b6200039987828801620002df565b945050602085015167ffffffffffffffff811115620003bd57620003bc62000184565b5b620003cb87828801620002df565b9350506040620003de8782880162000336565b9250506060620003f18782880162000336565b91505092959194509250565b7f4e487b7100000000000000000000000000000000000000000000000000000000600052602260045260246000fd5b600060028204905060018216806200044557607f821691505b6020821081036200045b576200045a620003fd565b5b50919050565b610e6e80620004716000396000f3fe608060405234801561001057600080fd5b50600436106100b45760003560e01c80635c658165116100715780635c6581651461019157806370a08231146101c157806395d89b41146101f1578063a9059cbb1461020f578063dd62ed3e1461023f578063e3d670d71461026f576100b4565b806306fdde03146100b9578063095ea7b3146100d757806318160ddd1461010757806323b872dd14610125578063313ce567146101555780633eaaf86b14610173575b600080fd5b6100c161029f565b6040516100ce9190610ad5565b60405180910390f35b6100f160048036038101906100ec9190610b90565b61032d565b6040516100fe9190610beb565b60405180910390f35b61010f61041f565b60405161011c9190610c15565b60405180910390f35b61013f600480360381019061013a9190610c30565b610429565b60405161014c9190610beb565b60405180910390f35b61015d6106b9565b60405161016a9190610c15565b60405180910390f35b61017b6106bf565b6040516101889190610c15565b60405180910390f35b6101ab60048036038101906101a69190610c83565b6106c5565b6040516101b89190610c15565b60405180910390f35b6101db60048036038101906101d69190610cc3565b6106ea565b6040516101e89190610c15565b60405180910390f35b6101f9610733565b6040516102069190610ad5565b60405180910390f35b61022960048036038101906102249190610b90565b6107c1565b6040516102369190610beb565b60405180910390f35b61025960048036038101906102549190610c83565b61094a565b6040516102669190610c15565b60405180910390f35b61028960048036038101906102849190610cc3565b6109d1565b6040516102969190610c15565b60405180910390f35b600080546102ac90610d1f565b80601f01602080910402602001604051908101604052809291908181526020018280546102d890610d1f565b80156103255780601f106102fa57610100808354040283529160200191610325565b820191906000526020600020905b81548152906001019060200180831161030857829003601f168201915b505050505081565b600081600560003373ffffffffffffffffffffffffffffffffffffffff1673ffffffffffffffffffffffffffffffffffffffff16815260200190815260200160002060008573ffffffffffffffffffffffffffffffffffffffff1673ffffffffffffffffffffffffffffffffffffffff168152602001908152602001600020819055508273ffffffffffffffffffffffffffffffffffffffff163373ffffffffffffffffffffffffffffffffffffffff167f8c5be1e5ebec7d5bd14f71427d1e84f3dd0314c0f7b2291e5b200ac8c7c3b9258460405161040d9190610c15565b60405180910390a36001905092915050565b6000600254905090565b6000610474600460008673ffffffffffffffffffffffffffffffffffffffff1673ffffffffffffffffffffffffffffffffffffffff16815260200190815260200160002054836109e9565b600460008673ffffffffffffffffffffffffffffffffffffffff1673ffffffffffffffffffffffffffffffffffffffff1681526020019081526020016000208190555061053d600560008673ffffffffffffffffffffffffffffffffffffffff1673ffffffffffffffffffffffffffffffffffffffff16815260200190815260200160002060003373ffffffffffffffffffffffffffffffffffffffff1673ffffffffffffffffffffffffffffffffffffffff16815260200190815260200160002054836109e9565b600560008673ffffffffffffffffffffffffffffffffffffffff1673ffffffffffffffffffffffffffffffffffffffff16815260200190815260200160002060003373ffffffffffffffffffffffffffffffffffffffff1673ffffffffffffffffffffffffffffffffffffffff16815260200190815260200160002081905550610606600460008573ffffffffffffffffffffffffffffffffffffffff1673ffffffffffffffffffffffffffffffffffffffff1681526020019081526020016000205483610a10565b600460008573ffffffffffffffffffffffffffffffffffffffff1673ffffffffffffffffffffffffffffffffffffffff168152602001908152602001600020819055508273ffffffffffffffffffffffffffffffffffffffff168473ffffffffffffffffffffffffffffffffffffffff167fddf252ad1be2c89b69c2b068fc378daa952ba7f163c4a11628f55a4df523b3ef846040516106a69190610c15565b60405180910390a3600190509392505050565b60035481565b60025481565b6005602052816000526040600020602052806000526040600020600091509150505481565b6000600460008373ffffffffffffffffffffffffffffffffffffffff1673ffffffffffffffffffffffffffffffffffffffff168152602001908152602001600020549050919050565b6001805461074090610d1f565b80601f016020809104026020016040519081016040528092919081815260200182805461076c90610d1f565b80156107b95780601f1061078e576101008083540402835291602001916107b9565b820191906000526020600020905b81548152906001019060200180831161079c57829003601f168201915b505050505081565b600061080c600460003373ffffffffffffffffffffffffffffffffffffffff1673ffffffffffffffffffffffffffffffffffffffff16815260200190815260200160002054836109e9565b600460003373ffffffffffffffffffffffffffffffffffffffff1673ffffffffffffffffffffffffffffffffffffffff16815260200190815260200160002081905550610898600460008573ffffffffffffffffffffffffffffffffffffffff1673ffffffffffffffffffffffffffffffffffffffff1681526020019081526020016000205483610a10565b600460008573ffffffffffffffffffffffffffffffffffffffff1673ffffffffffffffffffffffffffffffffffffffff168152602001908152602001600020819055508273ffffffffffffffffffffffffffffffffffffffff163373ffffffffffffffffffffffffffffffffffffffff167fddf252ad1be2c89b69c2b068fc378daa952ba7f163c4a11628f55a4df523b3ef846040516109389190610c15565b60405180910390a36001905092915050565b6000600560008473ffffffffffffffffffffffffffffffffffffffff1673ffffffffffffffffffffffffffffffffffffffff16815260200190815260200160002060008373ffffffffffffffffffffffffffffffffffffffff1673ffffffffffffffffffffffffffffffffffffffff16815260200190815260200160002054905092915050565b60046020528060005260406000206000915090505481565b6000828211156109fc576109fb610d50565b5b8183610a089190610dae565b905092915050565b6000808284610a1f9190610de2565b905083811015610a3257610a31610d50565b5b8091505092915050565b600081519050919050565b600082825260208201905092915050565b60005b83811015610a76578082015181840152602081019050610a5b565b83811115610a85576000848401525b50505050565b6000601f19601f8301169050919050565b6000610aa782610a3c565b610ab18185610a47565b9350610ac1818560208601610a58565b610aca81610a8b565b840191505092915050565b60006020820190508181036000830152610aef8184610a9c565b905092915050565b600080fd5b600073ffffffffffffffffffffffffffffffffffffffff82169050919050565b6000610b2782610afc565b9050919050565b610b3781610b1c565b8114610b4257600080fd5b50565b600081359050610b5481610b2e565b92915050565b6000819050919050565b610b6d81610b5a565b8114610b7857600080fd5b50565b600081359050610b8a81610b64565b92915050565b60008060408385031215610ba757610ba6610af7565b5b6000610bb585828601610b45565b9250506020610bc685828601610b7b565b9150509250929050565b60008115159050919050565b610be581610bd0565b82525050565b6000602082019050610c006000830184610bdc565b92915050565b610c0f81610b5a565b82525050565b6000602082019050610c2a6000830184610c06565b92915050565b600080600060608486031215610c4957610c48610af7565b5b6000610c5786828701610b45565b9350506020610c6886828701610b45565b9250506040610c7986828701610b7b565b9150509250925092565b60008060408385031215610c9a57610c99610af7565b5b6000610ca885828601610b45565b9250506020610cb985828601610b45565b9150509250929050565b600060208284031215610cd957610cd8610af7565b5b6000610ce784828501610b45565b91505092915050565b7f4e487b7100000000000000000000000000000000000000000000000000000000600052602260045260246000fd5b60006002820490506001821680610d3757607f821691505b602082108103610d4a57610d49610cf0565b5b50919050565b7f4e487b7100000000000000000000000000000000000000000000000000000000600052600160045260246000fd5b7f4e487b7100000000000000000000000000000000000000000000000000000000600052601160045260246000fd5b6000610db982610b5a565b9150610dc483610b5a565b925082821015610dd757610dd6610d7f565b5b828203905092915050565b6000610ded82610b5a565b9150610df883610b5a565b9250827fffffffffffffffffffffffffffffffffffffffffffffffffffffffffffffffff03821115610e2d57610e2c610d7f565b5b82820190509291505056fea2646970667358221220977c9c1496d4284af6734f9c66ddaf0afee5047b96efc31ef051aa1b4c27e6d964736f6c634300080d0033",
  "immutableReferences": {},
  "source": "// SPDX-License-Identifier: MIT\npragma solidity ^0.8.3;\n interface ERC20 {\n    function totalSupply() external view returns (uint);\n    function balanceOf(address tokenOwner) external view returns (uint balance);\n    function allowance(address tokenOwner, address spender) external view returns (uint remaining);\n    function transfer(address to, uint tokens) external returns (bool success);\n    function approve(address spender, uint tokens) external returns (bool success);\n    function transferFrom(address from, address to, uint tokens) external returns (bool success);\n \n    event Transfer(address indexed from, address indexed to, uint tokens);\n    event Approval(address indexed tokenOwner, address indexed spender, uint tokens);\n}\ncontract Safemath{\n     function sub(uint256 a, uint256 b) internal pure returns (uint256) {\n  assert(b <= a);\n  return a - b;\n}\nfunction add(uint256 a, uint256 b) internal pure returns (uint256)   {\n  uint256 c = a + b;\n  assert(c >= a);\n  return c;\n}\n\n}\ncontract Token is ERC20,Safemath{\n    string public name;\n    string public symbol;\n    uint public _totalSupply;\n    uint public decimals;\n    mapping(address => uint)public balance;\n    mapping (address =>mapping(address=>uint))public allowed;\n\n    constructor(string memory _name,string memory _sym,uint _totalsupply, uint _decimal){\nname = _name;\nsymbol = _sym;\n_totalSupply =_totalsupply;\ndecimals = _decimal;\nbalance[msg.sender] = _totalsupply;\n    }\nfunction totalSupply()public override view returns(uint){\n    return _totalSupply;\n}\nfunction balanceOf(address _tokenOwner)public override view returns(uint){\n    return balance[_tokenOwner];\n}\nfunction transfer(address _to,uint _tokens)public override returns(bool){\n    balance[msg.sender] = sub(balance[msg.sender], _tokens);\n    balance[_to] = add(balance[_to],_tokens);\n    emit Transfer(msg.sender,_to,_tokens);\n    return true;\n}\nfunction transferFrom(address _from,address _to,uint _tokens)public override returns(bool){\n    balance[_from] = sub(balance[_from], _tokens);\n    allowed[_from][msg.sender] = sub(allowed[_from][msg.sender],_tokens);\n    balance[_to] = add(balance[_to],_tokens);\n     emit Transfer(_from,_to,_tokens);\n    return true;\n}\nfunction approve(address _spender,uint _tokens)public override  returns(bool){\n    allowed[msg.sender][_spender] = _tokens;\n    emit Approval(msg.sender,_spender,_tokens);\n    return true;\n}\nfunction allowance(address _tokenOwner,address _spender)public override view returns(uint){\n   return allowed[_tokenOwner][_spender];\n}\n}",
  "sourcePath": "/home/home/Desktop/erc20/contracts/Token.sol",
  "compiler": {
    "name": "solc",
    "version": "0.8.13+commit.abaa5c0e.Emscripten.clang"
  },
  "schemaVersion": "3.4.7",
  "updatedAt": "2022-07-31T13:17:19.030Z",
  "devdoc": {
    "kind": "dev",
    "methods": {},
    "version": 1
  },
  "userdoc": {
    "kind": "user",
    "methods": {},
    "version": 1
  }
}